:020000040800F2
:100000005049002061020008690200086B020008E4
:100010006D0200086F020008710200080000000075
:10002000000000000000000000000000C9010008FE
:1000300075020008000000000D02000855140008B9
:100040007B0200087B0200087B0200087B0200089C
:100050007B0200087B0200087B0200087B0200088C
:100060007B0200087B0200087B0200087B0200087C
:100070007B0200087B0200087B0200087B0200086C
:100080007B0200087B0200087B02000800000000E1
:10009000000000007B020008000000007B02000856
:1000A0007B0200087B0200087B0200087B0200083C
:1000B0007B0200087B0200087B0200087B0200082C
:1000C000000000007B020008000000007B02000826
:1000D0007B0200087B0200087B0200087B0200080C
:1000E0007B0200087B0200087B0200087B020008FC
:1000F0007B0200087B0200087B0200080000000071
:10010000000000007B0200087B0200087B02000860
:100110007B0200087B0200087B0200087B020008CB
:100120007B0200087B0200087B0200087B020008BB
:100130007B0200087B0200080000000000000000B5
:100140007B02000800000000000000007B020008A5
:100150000000000000000000000000007B0200081A
:10016000000000000000000000000000000000008F
:100170000000000000000000000000007B020008FA
:100180007B020008000000007B0200087B020008E0
:10019000000000000000000000000000000000005F
:1001A000000000000000000000000000000000004F
:1001B00000000000DFF80CD000F064F800480047B1
:1001C000010B000850490020224B19680868B0E86C
:1001D000F00F80F30988BFF36F8F4FF0000080F3BA
:1001E00011884EF00D0E70470000000006480068B0
:1001F000006880F3088862B661B6BFF34F8FBFF323
:100200006F8F00DF00BF00BF08ED00E0EFF3098053
:10021000BFF36F8F0F4B1A6820E9F00F106008B51D
:100220004FF0BF0080F31188BFF34F8FBFF36F8F84
:1002300001F0C6F84FF0000080F31188BDE80840D7
:1002400019680868B0E8F00F80F30988BFF36F8F72
:10025000704700BF44000020EFF3058070470000A6
:100260000648804706480047FEE7FEE7FEE7FEE750
:10027000FEE7FEE7FEE7FEE7FEE7FEE7B907000858
:10028000B5010008064C074D06E0E06840F00103A8
:1002900094E8070098471034AC42F6D3FFF78EFF7E
:1002A000EC1600080C1700082DE9F0430546164629
:1002B0001F4608464FF0000C002423E0002319E0FD
:1002C00003F1010805FB08F804F10109B8FBF9F294
:1002D0008A4202D9A2EB010801E0A1EB02084246E2
:1002E000904202D9104633703C7010B94FF0010CA7
:1002F00002E05B1C402BE3D300BFBCF1000F00D039
:1003000002E0641C042CD9D300BFBDE8F0832DE9C2
:10031000F04102460025002600200023002400278B
:1003200091F803C00CF00F0591F803C00CF0100C0D
:10033000BCF1000F03D091F802C04CEA050591F81A
:1003400000C0BCF1000F31D0146800202BE04FF04A
:10035000010C0CFA00F3B1F800C00CEA03069E424F
:1003600020D183004FF00F0C0CFA03F7BC4305FAC1
:1003700003FC4CEA040491F803C0BCF1280F06D139
:100380004FF0010C0CFA00FCC2F814C00AE091F81E
:1003900003C0BCF1480F05D14FF0010C0CFA00FC72
:1003A000C2F810C0401C0828D1D31460B1F800C0B6
:1003B000BCF1FF0F34DD546800202EE000F1080C82
:1003C0004FF0010808FA0CF3B1F800C00CEA03067C
:1003D0009E4221D183004FF00F0C0CFA03F7BC436F
:1003E00005FA03FC4CEA040491F803C0BCF1280FA1
:1003F00005D100F1080C08FA0CF8C2F8148091F845
:1004000003C0BCF1480F07D100F1080C4FF0010800
:1004100008FA0CF8C2F81080401C0828CED35460AB
:10042000BDE8F081F0B5002300244D07ED0E02FA7F
:1004300005F3CD105DB9056A4E07F70E0F26BE40D5
:10044000B5430562056A45EA030404620AE0456AA9
:100450004E07F70E0F26BE40B5434562456A45EA92
:1004600003044462F0BD416170470161704708B503
:100470000121084600F026F84FF41060ADF80000A6
:1004800010208DF8030003208DF8020069464FF01C
:100490009040FFF73CFF4FF480714FF09040FFF722
:1004A000E4FF4FF400714FF09040FFF7DEFF08BD0E
:1004B00002490143024A1160704700000000FA053A
:1004C0000CED00E029B1064A926A0243044B9A629D
:1004D00004E0034A926A8243014B9A62704700002B
:1004E0000010024029B1064A126B0243044B1A6302
:1004F00004E0034A126B8243014B1A637047000009
:100500000010024029B1064AD26A0243044BDA6263
:1005100004E0034AD26A8243014BDA62704700006A
:1005200000100240F0B50021002400230025002225
:10053000314E766806F00C0121B1042905D0082956
:100540002CD105E02D4E06602BE02C4E066028E0F5
:10055000294E3668012707EB9664274E3668C6F3A6
:100560000256731C244E766806F480352DB9244E4D
:100570006643B6FBF3F606600FE01F4E766806F49E
:1005800000362EB11F4E6643B6FBF3F6066004E05C
:100590001A4E6643B6FBF3F6066002E0174E06609D
:1005A00000BF00BF144E766806F0F0010909164E30
:1005B000725C0668D64046600F4E766806F4E061CD
:1005C000090A114E725C4668D64086600A4E76680B
:1005D00006F46051C90A0C4E725C4668D640C6608B
:1005E000054E766806F44041890B084E725CC66879
:1005F000B6FBF2F60661F0BD0010024000127A0070
:10060000001BB70000093D0014000020240000205A
:100610003FB500200390012002906048006840F43C
:1006200080305E49086000BF5C48006800F400301C
:1006300002900398401C0390029818B90398B0F5F3
:10064000A06FF1D15548006800F4003048B1012096
:1006500002904FF47A7500BF281EA5F10105FBD169
:1006600001E0002002904E484E490860029801289F
:100670007ED14D48006840F010004B4908600846A4
:10068000006820F00700086046480068401E47499F
:10069000B0FBF1F4072C00D907244348006820433D
:1006A000414908603D4840683C4948600846406808
:1006B00048600846406848600846406820F440307A
:1006C00048603B4C0846406840F4803048606B46C8
:1006D00001AA344801682046FFF7E6FD2F4800686C
:1006E000C0F313002D4908609DF8040080069DF8B2
:1006F000001040EA01502949096808432749086069
:100700000846006B40F0805008632A48006840F4B7
:100710008030284908600846006840F4404008607E
:1007200000BF2448406800F480300028F9D01B48FE
:10073000006840F080701949086000BF17480068E1
:1007400000F000700028F9D000BF1A48006840F49B
:100750000030184908600846406800F4003000285E
:10076000F3D04FF47A7500BF281EA5F1010500E013
:1007700012E0F9D10948406820F0030007494860B9
:100780000846406840F00200486000BF03484068E7
:1007900000F00C000828F9D13FBD00000010024015
:1007A00000D8B805100000200020024000366E017D
:1007B00000127A000070004000B5124840681249EB
:1007C00008401049486008460068104908400D4933
:1007D00008600846006820F48020086008464068E9
:1007E00020F4FE00486008460068C0F3130008606B
:1007F0004FF41F008860FFF70BFF4FF000600449C3
:10080000086000BD001002400C00FFF8FFFFF6FE7C
:1008100008ED00E030B589B005460C460121022004
:10082000FFF760FE01210846FFF74CFE4020ADF8BF
:10083000200018208DF8230003208DF8220008A93D
:100840004FF09040FFF763FD022206214FF09040E9
:10085000FFF7E8FD0695ADF814400020ADF81C0048
:10086000ADF8160005A90F4800F080F86020ADF83B
:1008700000000120ADF8020000200290ADF80C004D
:100880006946084800F028F80821064800F062F898
:100890000121044800F008F80121024800F010F896
:1008A00009B030BD0004004021B1028842F080024E
:1008B000028004E002884FF67F731A40028070477E
:1008C00021B1028842F00102028004E002884FF662
:1008D000FE731A400280704770B500240022002386
:1008E000058C4FF6FE7635400584028C8388048B98
:1008F0004FF68F752C40B51E2C400D882C43751E6D
:100900002A408D892A434D882A43104DA84202D09F
:100910000F4DA84213D14FF6F7752A40CD892A43CF
:100920004FF6FB752A408D882A434FF6FF652B4012
:100930004FF6FF552B400D8A2B434D8A2B43838066
:1009400004838D684563028470BD0000002C014063
:10095000003401400A460021018B4FF6F77319401D
:1009600011430183704741637047000000220288F1
:10097000134B98420ED0B0F1804F0BD0114B9842E0
:1009800008D0114B984205D0104B984202D0104B22
:10099000984204D14FF68F731A404B881A43028055
:1009A0004B68C3620B880385054B984202D0084B05
:1009B000984201D18B7A038601238382704700001D
:1009C000002C01400004004000080040000C0040E2
:1009D0000034014021B1826942F00102826104E0E9
:1009E00082694FF6FE731A4082617047024600200A
:1009F00093680B400BB1012000E0002070471AB152
:100A000003690B43036102E003698B430361704791
:100A10002DE9F04385B004460D460026B046B146A8
:100A200000272746E66940F2CF108643A888E98868
:100A30000843298908430643E661A66926F01F0694
:100A4000A889698908430643A6616846FFF76AFDDD
:100A50000B48874202D1DDF80C8001E0DDF8088008
:100A60002868B8FBF0F006092868B8FBF0F000F041
:100A70000F092662C4F8249005B0BDE8F083000099
:100A800000380140CAB2026070470000014A0249C2
:100A900000F013B8DD0A00088000002002E008C85A
:100AA000121F08C1002AFAD170477047002001E0E8
:100AB00001C1121F002AFBD170472DE9F0411646F3
:100AC0000F460446002503E03946B047641C6D1C00
:100AD00020780028F8D12846BDE8F08170B504469A
:100AE0000D46E1B20548FFF7CDFF00BF01210348E5
:100AF000FFF77CFF0028F9D0204670BD0038014088
:100B00001CB500F027FA0DA0FFF7C0FF002001215F
:100B100003468022CDE900100DA10F4800F0B4FC7F
:100B20000020022103468022CDE900100BA10D48D0
:100B300000F0AAFC00F00AFC00BFFEE74672656503
:100B400052544F53BFAACABCD4CBD0D00D0A000018
:100B50004C454431000000006D1100084C45443202
:100B600000000000BD1100082DE9F04105460E46C9
:100B70001C4807681C480068001D00F0E3FA50B9E3
:100B80001948006890F82C1001208840174909681E
:100B9000814316480160681C38B936B112480168B3
:100BA000091D134800F05CFB1AE07C190E48006830
:100BB0004460BC4207D20C480168091D0D4800681A
:100BC00000F034FB0CE008480168091D0A48006881
:100BD00000F02CFB09480068844201D207480460F9
:100BE000BDE8F08158000020440000205C00002097
:100BF000384500204C0000204800002074000020F0
:100C000010B5044600F038FB23480068401C224918
:100C100008602248006840B920480460084600681F
:100C200001280DD100F014F90AE01D48006838B918
:100C30001A480068C06AE16A884201D8174804600F
:100C400018480068401C1749086094F82C100120CF
:100C5000884015490968084313490860E16A01EBB7
:100C60008101124A02EB8100211D00F0F9FA00F027
:100C700015FB0B48006868B108480068C06AE16A63
:100C8000884207D24FF0805009490860BFF34F8F68
:100C9000BFF36F8F10BD00005400002044000020FF
:100CA00060000020700000205C00002084440020D0
:100CB00004ED00E070B523E000F07AFB1348006813
:100CC00008B9012000E00020054600F09BFCBDB9FA
:100CD00000F0D2FA0D48C068C468201D00F032FA56
:100CE0000B480068401E0A4908600A480068401E18
:100CF0000849086000F0D2FA204600F00DF800BF65
:100D0000044800680028D7D170BD000024450020A9
:100D1000540000205000002010B50446206B00F065
:100D2000CDFA204600F0CAFA10BD000030B54FF4ED
:100D30008843174800F007042CB1C01D20F00700BD
:100D4000134C041B1B1B0246124C22600024114D45
:100D50006C60D018083820F007000F4C2060002489
:100D60000D4D2D686C600C4D2D682C601146441A99
:100D70004C60094C24680C60084D4C682C60084D90
:100D80004C682C604FF00044064D2C6030BD0000D4
:100D900084000020280000203000002038000020BF
:100DA000340000203C00002000BFFFF783FF06480E
:100DB00000680128F9D94FF0805004490860BFF35A
:100DC0004F8FBFF36F8FF0E78444002004ED00E005
:100DD0002DE9FF5F80460E469146DDE90E7A109CB4
:100DE000A9F10100216B01EB800B2BF0070B002513
:100DF00007E0715D04F134004155705D00B902E017
:100E00006D1C102DF5D300BF002143200155052F87
:100E100000D30427E762201D00F005FA04F1180052
:100E200000F001FA2461C7F10500A06164620020AE
:100E3000606484F8480041465846039A00F020F95F
:100E40002060BAF1000F01D0CAF80040BDE8FF9F52
:100E500010B5002407E004EB84010F4A02EB810087
:100E600000F0D4F9641C052CF5D30C4800F0CEF941
:100E70000B4800F0CBF90B4800F0C8F90A4800F025
:100E8000C5F90A4800F0C2F9044809490860044855
:100E90000849086010BD000084440020E844002098
:100EA000FC44002010450020244500203845002047
:100EB000480000204C00002010B50146164800E014
:100EC000006803688B42FBD30246436813448B429D
:100ED00004D143684C682344436001460A464B688A
:100EE00013440468A34211D10C4C03682468A34244
:100EF00008D04B680468646823444B6003681B682F
:100F00000B6005E0054B1B680B6001E003680B609C
:100F1000884200D0016010BD280000203000002071
:100F20000A490968096809B9012100E0002121B1D5
:100F30004FF0FF31064A116006E004490968C968AC
:100F4000C868034A416811607047000048000020EB
:100F50007400002010B54FF44070FFF7A9FAFFF7B6
:100F600086FA4FF4E13000F09DF80848006808491F
:100F7000B0FBF1F0401E84B2214640F2E730FFF7AB
:100F800049FCC8210348FFF7EEFC10BD100000200B
:100F900040420F000004004000BFBF2080F31188D2
:100FA000BFF34F8FBFF36F8F00BF00BFFEE700009E
:100FB0002DE9F04105464FF0000800F0F9F92B4803
:100FC000006808B9FFF7B2FE2948006828400028E9
:100FD00047D145B1083505F0070020B105F00700FD
:100FE000C0F108000544002D3BD02248006885422E
:100FF00037D8214E3046046801E0264624686068F0
:10100000A84202D220680028F7D11848006884421C
:1010100027D0306800F10808206830606068401B05
:10102000102807D967196068401B786065603846EA
:10103000FFF742FF0F4960680968081A0D49086008
:10104000084600680D490968884203D209480068CB
:101050000A49086006496068096808436060002022
:10106000206000F0CFFA4046BDE8F081300000205B
:101070003C00002034000020280000203800002020
:10108000001F4FF080730360001F21F00103036015
:10109000001F034B036014380260203870470000C3
:1010A000990F000810B586B0044601210846FFF7E5
:1010B00009FA4FF40070ADF8140003208DF8160003
:1010C00018208DF8170005A94FF09040FFF71FF981
:1010D00007220921C806FFF7A5F94FF48060ADF893
:1010E000140004208DF8170005A94FF09040FFF779
:1010F0000EF907220A214FF09040FFF793F90121E2
:101100001020FFF7FFF901943020ADF8080000200F
:10111000ADF80A00ADF80C00ADF810001820ADF8DD
:101120000E0001A90648FFF773FC012202210448C2
:10113000FFF765FC01210248FFF74CFC06B010BD2B
:101140000038014001460A69D1E901309860D1E9CF
:10115000010358605068884201D1886850600020BF
:1011600008611068401E10601068704719E04FF465
:1011700080714FF09040FFF776F90AA0FFF786FCE8
:101180004FF47A7000F0C8F84FF480714FF090403F
:10119000FFF76BF906A0FFF779FC4FF4FA6000F057
:1011A000BBF8E4E74C454431204F4E0D0A000000E7
:1011B0004C454431204F46460D0A000019E04FF4DB
:1011C00000614FF09040FFF750F90AA0FFF75EFC76
:1011D0004FF47A7000F0A0F84FF400614FF09040A7
:1011E000FFF741F906A0FFF751FC4FF47A7000F0C9
:1011F00093F8E4E74C454432204F46460D0A000080
:101200004C454432204F4E0D0A00000000F1080109
:1012100041604FF0FF31816000F10801C160016160
:1012200000210160704700210161704710B502463E
:101230000B685C1C0CB9106907E002F1080000E0C3
:101240004068446824689C42FAD944684C604C6801
:10125000A160886041600A611468641C146010BD5C
:1012600042684A6093688B60936859609160086136
:1012700003685B1C0360704700BFBF2080F31188C8
:10128000BFF34F8FBFF36F8F00BF03480068401C50
:1012900001490860704700004000002006480068CF
:1012A000401E054908600846006820B9002080F308
:1012B000118800BF00BF70474000002070B506468F
:1012C0003546D6B1083D2C460C496068096808408F
:1012D00098B1206888B909496068096888436060E6
:1012E00000F066F806496068096808440449086027
:1012F0002046FFF7E1FD00F085F970BD3C000020BD
:101300003400002003484FF0E021486107200861C5
:1013100070470000FF76010070B50446002544B117
:1013200000F046F800212046FFF71EFC00F06AF9A5
:1013300005463DB94FF0805003490860BFF34F8F19
:10134000BFF36F8F70BD000004ED00E01CB51148C5
:1013500000210B468022CDE900100FA1104800F0BB
:1013600093F80446012C14D100BFBF2080F31188EC
:10137000BFF34F8FBFF36F8F00BF4FF0FF300949AE
:10138000086001200849086000200849086000F052
:1013900047F81CBD7800002049444C45000000007F
:1013A000A90D0008740000206000002058000020F3
:1013B00002480068401C0149086070477C0000201A
:1013C0001248006818B10120114908601DE0002092
:1013D0000F4908600F480068B0FA80F0C0F11F01A3
:1013E00001EB81020C4B03EB8200426852684260C1
:1013F00000F108024368934202D142685268426099
:101400004268D268054B1A6000BF70477C0000201C
:10141000680000205C00002084440020440000207C
:1014200010B50A48006840F47F0008490860084683
:10143000006840F07F400860FFF764FF0020044927
:101440000860FEF7D3FE002010BD000020ED00E094
:101450004000002010B500BFBF2080F31188BFF30B
:101460004F8FBFF36F8F00BF00F03EF818B14FF001
:1014700080500449086000BF002080F3118800BF3D
:1014800010BD000004ED00E02DE9FF4F85B080465F
:1014900089461746DDE912ABB800FFF789FD06461D
:1014A00056B14C20FFF784FD04460CB1266304E0DE
:1014B0003046FFF703FF00E000247CB10020CDE9B7
:1014C00000ABCDE902403A4649464046089BFFF74B
:1014D0007FFC2046FFF794FB012501E04FF0FF352C
:1014E000284609B0BDE8F08F2DE9F04100273A48C1
:1014F0000068002863D139480068451C37480560FA
:101500008DB93748D0F80080364800683449086003
:101510003448C0F8008034480068401C32490860F4
:10152000FFF7FEFC00BF3148006885423BD300BF97
:101530002B480068006808B9012000E0002020B1B5
:101540004FF0FF30294908602CE025480068C0684A
:10155000C4686668B54202D22448066022E0201DB5
:10156000FFF7F0FDA06A18B104F11800FFF7EAFDDB
:1015700094F82C10012088401D49096808431C4933
:101580000860E16A01EB81011A4A02EB8100211D2A
:10159000FFF766FE1849E06A0968C96A8842C7D33E
:1015A0000127C5E700BF14480068C06A00EB80004F
:1015B000104951F82000012800D9012704E00F4804
:1015C0000068401C0D4908600D48006800B1012703
:1015D0003846BDE8F08100007C0000205800002063
:1015E000480000204C0000206C0000207400002007
:1015F0005C0000208444002044000020640000209F
:101600006800002070B500240026FFF735FE2E4844
:101610000068401E2C4908600846006800284FD129
:101620002A48006800284BD024E02948C068C468D4
:1016300004F11800FFF786FD201DFFF783FD94F8E5
:101640002C1001208840234909680843214908607B
:10165000E16A01EB8101204A02EB8100211DFFF7C5
:10166000FFFD1E49E06A0968C96A884202D3012069
:101670001B4908601648006808B9012000E00020F6
:101680000028D2D00CB1FFF74BFC1648056865B1B5
:1016900000BFFFF729FF10B10120114908606D1E3E
:1016A000002DF6D100200F4908600D48006838B1C0
:1016B000012630070C490860BFF34F8FBFF36F8FCF
:1016C000FFF7ECFD304670BD7C0000205400002088
:1016D000104500205C0000208444002044000020CD
:1016E000680000206400002004ED00E00C170008F2
:1016F00000000020840000009C0A000890170008E9
:1017000084000020CC480000AC0A00080000000063
:1017100000000000010203040607080900D8B8050C
:101720000000000001020304010203040607080987
:101730000204060800000000000000000000000095
:10174000000000000000000000000000AAAAAAAAF1
:101750000000000000000000000000000000000089
:101760000000000000000000000000000000000079
:101770000000000000000000000000000000000069
:101780000000000000000000000000000000000059
:04000005080001B539
:00000001FF
